:100000000000012099060000D9060000D906000072
:10001000D9060000D9060000D90600000000000043
:10002000000000000000000000000000D9060000F1
:10003000D906000000000000D9060000D10200002F
:10004000E0B545464E465746E0B45D4620B42546E9
:1000500026462746A046A146A246A346A44684F3C8
:100060000088A44720BCAB46E0BCBA46B146A846CF
:10007000E0BD0000B0B582B000AF02003960FB1DEA
:100080001A70FB1D1B787F2B28D82F4CFB1D1B786B
:100090005BB29B082C49FA1D127852B29208C0320A
:1000A00092005258F91D0978080003210140C90047
:1000B000FF2088400100C94311403A689201FF20A7
:1000C0001040FA1D1278150003222A40D2009040F9
:1000D00002000A43C0339B001A5131E01B4CFB1D48
:1000E0001B781A000F231340083B9908174AFB1D81
:1000F0001B7818000F230340083B9B0806339B0026
:10010000D31804331B68FA1D127810000322024032
:10011000D200FF2090400200D2431A403B689B016E
:10012000FF201840FB1D1B781D0003232B40DB0024
:10013000984003001A438B1D9B00E31804331A6098
:10014000C046BD4602B0B0BD00E100E000ED00E0F9
:1001500080B582B000AF78607B68013B0C4A934267
:1001600001D9012310E00B4B7A68013A5A60012350
:100170005B4203211800FFF77DFF064B00229A60C7
:10018000044B07221A6000231800BD4602B080BD50
:10019000FFFFFF0010E000E080B500AF8023DB052B
:1001A00040F20012592199508023DB0540F20012E1
:1001B000162199508023DB0540F2001288219950C6
:1001C0008023DB0540F200129B58002BE6D0C0468E
:1001D000BD4680BD80B582B000AF78600A4B180084
:1001E00000F0A4FB7A6813005B009B181800BD4662
:1001F00002B0010002000300844680BC02BC8646B7
:1002000081F300880C47C0464C19000080B582B0CD
:1002100000AF78600A4B180000F088FB7A68130082
:10022000DB009B1A1800BD4602B00100020003006B
:10023000844680BC02BC864681F300880C47C046D9
:100240006C19000080B582B000AF78607B68012235
:1002500093431A00074B1A6000231800BD4602B0F2
:10026000010002000300844680BC02BC864681F384
:1002700000880C476800002080B582B000AF78602D
:100280007B68012293431A00074B1A600023180071
:10029000BD4602B0010002000300844680BC02BCDF
:1002A000864681F300880C476C00002080B500AFC3
:1002B000064B1B681800BD4601000200030084467F
:1002C00080BC02BC864681F300880C4700000020F9
:1002D000B0B500AF284B1B68591C274A116040F28B
:1002E0002C12934211D040F22C12934204D8002BCE
:1002F00037D0C82B37D02AE040F2F412934213D003
:1003000040F2582293421ED021E01C4B1B6863B37D
:100310001A4B1B6801201C006408640021002200A5
:100320002300FFF78DFE20E0154B1B68FBB1144B3B
:100330001B6801201C0064086400210022002300C7
:10034000FFF77EFE13E00C4B00221A6010E00A4B10
:100350001B6840F2582293420AD9074B00221A60C8
:1003600006E0C04604E0C04602E0C04600E0C046E9
:10037000C046BD46B0BDC0467000002068000020E9
:100380006C00002090B587B000AFFFF705FF00F0CC
:10039000CBF800F0F5F8434B9A6A434B1100180074
:1003A00000F050FA3F4B9A6A8023DB029A4235D91B
:1003B0003E4B7D221A603D4B3D4A5A603B4B8022AA
:1003C000D2029A60394B2122DA60384B01221A613D
:1003D000C046364B1B69002BFBD1364B180000F092
:1003E000A5FA354B1B685B685A68013A5A605B682E
:1003F000002B09DA304B1A682F4B1B685B68190019
:10040000100000F09DFA05E02B4B1B685B681A6832
:1004100001321A608023DB0501229A60EFF3088322
:100420001C0023007B61EFF309831C0023003B6168
:100430003A697969214B180000F004FA204B1B68D7
:100440003B603B6883F38888EFF388831C002300BC
:10045000FB601B4B1B687B607B6883F38988EFF331
:1004600089831C002300BB60BA68F968154B18002B
:1004700000F0E8F900F0D0F9134B1B686422B3FBDD
:10048000F2F31800FFF764FE00F020F800E030BF40
:100490008023DB051B68002BF9D100231800BD4623
:1004A00007B090BD00F002408C19000000C0004071
:1004B00000082000A019000004000020BC19000062
:1004C00000000130F41900000000002090B583B056
:1004D00000AF134B134A9A60114B9B681B683B603B
:1004E0003B6883F388880E4B9B6804331B687B60F2
:1004F0007B68012293437B607B680122134053B9E0
:100500007B6800201C006408640021002200230096
:10051000FFF796FD00E0FEE7BD4603B090BDC04684
:1005200000ED02E00000041080B500AF134B134A49
:10053000126801210A431A60104B00221A610F4B06
:100540000E4A9268E021C9020A439A600B4B0B4A9B
:10055000D2688021C9050A43DA60084BC0229204A0
:100560005A618023DB05C02292051A668023DB05D1
:1005700003225A66C046BD4680BDC0460002004008
:1005800080B500AF044B054A5A62034B0322DA6080
:10059000C046BD4680BDC046000007506600003022
:1005A00080B582B000AF7860C0460E4B9A69802358
:1005B0001B041340002BF8D10A4B7A681A607B6841
:1005C0000A2B0AD1C046074B9A6980231B041340AB
:1005D000002BF8D1034B0D221A60C046BD4602B075
:1005E00080BDC0460000075080B586B000AFF860FF
:1005F000B9607A6000237B610AE0BB685A1CBA606C
:100600001B785BB21800FFF7CBFF7B6901337B617E
:100610007A697B689A42F0DB7B681800BD4606B0B9
:1006200080BD000080B586B000AFF860B9607A6028
:100630007B680BB9002328E0C046164B9B6944F247
:1006400000021340002BF8D1BB685A1CBA60114A53
:10065000126852B21A7001237B610FE00D4B9B6947
:1006600044F20002134073B9BB685A1CBA60094ACD
:10067000126852B21A707B6901337B617A697B68B8
:100680009A42EBDB00E0C0467B691800BD4606B02D
:1006900080BDC046000007500A490B4A0B4B9B1A0D
:1006A00003DD043BC858D050FBDC0949094A00204F
:1006B000521A02DD043A8850FCDC00F0B3F8FFF770
:1006C00061FE7047C81A000000000020680000208A
:1006D0006800002084000020FEE7000080B500AF25
:1006E0002D4B00229A602C4B0022DA602A4B2B4AB9
:1006F0001A61294B01229A60274B294ADA60264B5E
:10070000284A1A61244B02229A60234B264ADA6057
:10071000214B264A1A61204B03229A601E4B244A21
:10072000DA601D4B234A1A611B4B04229A601A4B54
:10073000A022D205DA60184B1F4A1A61164B052217
:100740009A60154B1D4ADA60134B1D4A1A61124B11
:1007500001221A601B4B1B4A126908218A431A6145
:10076000184B184AD26818490A4044F200010A435B
:10077000DA60164A40F280230021D150134A40F239
:1007800084230021D150114A40F288230021D15006
:10079000C046BD4680BDC046D0ED00E00300040069
:1007A00000000410E1FF071000FC0020E3FF002020
:1007B00000000130E1FF0130E1FFFF5F007C8000BD
:1007C000E37F800000ED00E0F2BFFFFF00E100E00A
:1007D00080B500AF0F4B01221A600E4B00225A6009
:1007E0000C4B00229A600B4B80225202DA60094BBC
:1007F00000221A61074B00225A61064B00229A61BF
:10080000044B00221A62034B4FF600725A62C04634
:10081000BD4680BD00F0024080B500AFC046BD4679
:1008200080BD000080B500AF044B054A9A60FFF719
:1008300055FFFFF7CDFFC046BD4680BD00ED00E08F
:10084000000000000FB40A4B13B51C6824B1A36963
:1008500013B9200000F06CFA05AB049AA1682000DF
:10086000019300F047FC16BC08BC04B01847C04612
:100870000400002070B505000E0018B183690BB9A3
:1008800000F056FAAB69AC6813B9280000F050FAD2
:10089000234B9C420DD16C68A3891B0701D52369AA
:1008A000FBB92100280000F0C9F8D0B10120404276
:1008B00070BD1C4B9C4201D1AC68EDE71A4B9C42C9
:1008C000EAD1EC68E8E7013B0136A360002B04DACB
:1008D000A269934216DB0A2914D023685A1C2260AD
:1008E00019703178A3680029EDD1013BA360002B7A
:1008F0000FDA22000A31280000F04EF8431CD5D050
:100900000A20D5E72200280000F046F8431CE8D171
:10091000CCE70A2023685A1C22601870C8E7C0463A
:10092000541A0000741A0000341A000010B5034B6A
:1009300001001868FFF79EFF10BDC04604000020AC
:1009400070B505000C0018B183690BB900F0F0F91F
:100950000E4B9C420DD16C682100280000F06AFE0D
:1009600088B96368013B636023685A1C2260187869
:1009700070BD074B9C4201D1AC68EDE7054B9C4232
:10098000EAD1EC68E8E701204042F1E7541A0000A0
:10099000741A0000341A0000F8B505000E001400A7
:1009A00018B183690BB900F0C3F9214B9C422AD1DD
:1009B0006C68A369A360A3891B072ED5236963B361
:1009C00023682269F7B2981A6369F6B2984204DB89
:1009D0002100280000F02CF928BBA3680130013B5E
:1009E000A36023685A1C22601F706369984204D078
:1009F000A389DB0719D50A2E17D12100280000F0A2
:100A000017F990B10FE00B4B9C4201D1AC68D0E7D5
:100A1000094B9C42CDD1EC68CBE72100280000F0C7
:100A20000DF80028CCD0012676423000F8BDC04633
:100A3000541A0000741A0000341A0000344B70B5C8
:100A40001D6806000C0025B1AB6913B9280000F041
:100A50006FF9304B9C420FD16C680C23E25E93B26D
:100A600019072CD4D90611D4092301203360373358
:100A70001343A381404270BD274B9C4201D1AC6817
:100A8000EBE7264B9C42E8D1EC68E6E75B0712D522
:100A9000616B41B123004433994202D0300000F031
:100AA0005DFA002363632422A3899343A381002377
:100AB0006360236923600823A2891343A381236908
:100AC0005BB940F2802140F20022A3890B4093429F
:100AD00003D02100300000F0FDF90123A28913406A
:100AE0008BB10023A36063695B42A361236900208B
:100AF000002BC0D10C23E25E1306BCD54023134368
:100B0000A3810138B7E7920700D46369A360EDE7DA
:100B100004000020541A0000741A0000341A000067
:100B2000F7B58A8905000C0013075ED44B68002BCB
:100B300004DC0B6C002B01DC0020FEBDE76A002FFB
:100B4000FAD000232E682B6041F200031A4092B3C2
:100B5000606DA3895B0705D56368C01A636B0BB131
:100B6000236CC01A0200216A00232800E76AB847F4
:100B7000A189431C06D12B681D2B30D82B4ADA40A3
:100B8000D3072CD50023636023692360CB0404D5ED
:100B9000431C01D12B6803B96065616B2E6000298D
:100BA000CAD023004433994202D0280000F0D6F97D
:100BB00000206063C1E70123216A2800B847431C75
:100BC000C7D12B68002BC4D01D2B01D0162B01D10F
:100BD0002E60B1E74023A2891343A381ADE74023F0
:100BE0000B430120A3814042A7E70F69002FA3D048
:100BF0000B680F60DB1B01930023920700D14B6948
:100C0000A360019B002B00DC96E7019B3A00216A60
:100C10002800A66AB047002803DC4023A2891343BA
:100C2000DFE7019B3F181B1A0193EAE70100402010
:100C30000B6970B505000C000BB9002070BD18B130
:100C400083690BB900F074F80B4B9C4209D16C68B6
:100C50000C22A35E002BF0D021002800FFF760FFDC
:100C6000ECE7064B9C4201D1AC68F1E7044B9C4297
:100C7000EED1EC68ECE7C046541A0000741A00008C
:100C8000341A000010B5010028B9054B0549186851
:100C900000F0D7F810BD044B1868FFF7C9FFF9E75B
:100CA000301A0000310C00000400002010B5024989
:100CB00000F0C7F810BDC046310C0000002310B58D
:100CC000040003604360836081814366C2810361E5
:100CD00043618361190008225C3000F037F9054B4D
:100CE00024626362044BA362044BE362044B2363FC
:100CF00010BDC0466D17000095170000CD1700000D
:100D0000F917000070B568254A1E55430E002900EA
:100D1000743100F069F9040040B100212A0001603B
:100D200046600C30A060683200F010F9200070BD01
:100D3000836913B5040043BB8364C3640365134B29
:100D4000134A1B6882620193984201D10123836197
:100D5000200000F01FF86060200000F01BF8A06089
:100D6000200000F017F80022E06004216068FFF71F
:100D7000A5FF01220921A068FFF7A0FF022212218E
:100D8000E068FFF79BFF0123A36113BD301A000049
:100D9000AD0C0000F8B51C4B07001E68B36913B911
:100DA0003000FFF7C5FF4836B4687368013B03D5D0
:100DB000336833B13668F7E70C22A55E6DB168344D
:100DC000F4E704213800FFF79DFF30600028F1D1DF
:100DD0000C2304003B602000F8BD012320005B428F
:100DE000E3810233A38165662560A56065602561A6
:100DF0006561A561082229005C3000F0A7F86563F1
:100E0000A563A564E564E6E7301A0000F7B548304D
:100E10000400002601910CB93000FEBDA56867688A
:100E2000013F01D52468F6E7AB89012B07D90E22D3
:100E3000AB5E013303D02800019B98470643683519
:100E4000EEE7F7B5040007000026019148340CB91D
:100E50003000FEBD6368A5680093009B013B0093D2
:100E600001D52468F3E7AB89012B08D90E22AB5ECC
:100E7000013304D029003800019B984706436835A8
:100E8000EBE7000070B50E001D000E23C95E90B0A8
:100E90001400002907DA00232B60B3891B0611D444
:100EA00040F200430FE001AA00F0CEFC0028F2DB84
:100EB0004FF20002029B1340054A9B185A425341CD
:100EC0002B60EDE740230020236010B070BDC046CA
:100ED00000E0FFFFF7B502268B8905000C003342C6
:100EE00006D0230047332360236101236361F7BDEC
:100EF00001AB6A46FFF7C6FF00990700280000F023
:100F000073F830B90C22A35E9A05F0D41E43A68173
:100F1000E7E70D4BAB628023A28920601343A381D6
:100F2000009B20616361019B4BB10E23E15E2800B1
:100F300000F09CFC18B10123A2891343A381A0896E
:100F40003843A081D3E7C046AD0C000003008218EF
:100F5000934200D1704719700133F9E770B505006D
:100F600079B10C1F2368002B00DAE418280000F088
:100F7000AAFC1C4A13682BB963601460280000F0B7
:100F8000A3FC70BDA34209D9216860188342F3D144
:100F900018685B6841182160EEE713005A680AB1CF
:100FA000A242FAD919685818A0420BD12068091832
:100FB000581819608242E1D11068526841181960CE
:100FC0005A60DBE7A04202D90C232B60D6E72168E8
:100FD0006018824203D11068526841182160626033
:100FE0005C60CBE774000020032370B5CD1C9D43EB
:100FF000083506000C2D1CD20C25A9421BD8300048
:1010000000F061FC254A14682100C1B9244C236812
:101010001BB9300000F09AFB20602900300000F07E
:1010200095FB431C2DD10C233000336000F04CFCA9
:1010300003E0002DE1DA0C233360002070BD0B6863
:101040005B1B1BD40B2B03D90B60CC18256003E072
:101050008C420FD163681360300000F035FC200033
:1010600007220B30231D9043C31A002BE6D05A42AF
:10107000E250E3E74B6863600C00EDE70C00496861
:10108000C3E70323C41C9C43A042DFD0211A3000D5
:1010900000F05CFB431CD9D1C5E7C04674000020BA
:1010A00078000020936810B5013B9360002B05DAAF
:1010B0009469A34208DBCBB20A2B05D01368581CF5
:1010C00010601970C8B210BDFFF766FCFBE7F8B5F9
:1010D00006000F001400D518AC4201D1002007E033
:1010E00021783A003000FFF7DDFF0134431CF3D1D3
:1010F000F8BD0000F0B59FB006000F001400059386
:1011000018B183690BB9FFF713FE7D4B9F425AD18B
:101110007768BB891B0760D53B69002B5DD0002336
:1011200006AD6B6120336B761033AB760294029C74
:101130002378002B5BD1029BE31A04936BB1049BD1
:10114000029A39003000FFF7C2FF431C00D1C8E00B
:101150006A69049B944663446B612378002B00D139
:10116000BFE00122002352426A6002A954325218A1
:1011700001342B60EB60AB601370AB652178052206
:10118000604800F095FB631C9C46002833D1296819
:10119000CB0604D5532302AA20309B1818700B07E6
:1011A00004D553232B2002AA9B18187023782A2BCE
:1011B0002AD000200A21099B2278303A092A68D9CE
:1011C00050B3099328E0504B9F4201D1B768A0E784
:1011D0004E4B9F429DD1F7689BE739003000FFF7E7
:1011E0002DFC00289BD0012040421FB0F0BD252BD4
:1011F000A1D001349CE7434B2968C01A01238340E6
:101200000B432B606446B9E7059B181D1B680590CE
:10121000002B38DB0993644623782E2B0BD163789F
:10122000621C2A2B3DD1059B02341A1D1B680592B6
:10123000002B33DB079321780322354800F038FB7D
:1012400038B1334B2A68C01A4023834013432B60C4
:1012500001342178631C06222E480293297600F07F
:1012600027FB002843D02C4B7BBB2968059B07221A
:10127000C90528D59B189343083305936B69039AD6
:101280009B186B6153E75B42EB6002230B432B60BF
:10129000C1E74B4301349B1801208DE701235B42DA
:1012A000C8E7002314000A201A006B602178303947
:1012B000092903D9002BBED00792BCE74243013471
:1012C00052180123F2E70733D5E705AB00933A0044
:1012D000124B2900300000E000BF0390039B013354
:1012E000CCD1BB895B0600D57DE70B987DE705ABCC
:1012F00000933A00094B2900300000F07DF8ECE73C
:10130000541A0000941A0000741A0000341A0000E5
:101310009A1A00009E1A000000000000CF10000082
:10132000F7B5150001938A680B6900900C00934291
:1013300000DA130022002B60433212780AB1013325
:101340002B6023689B0602D52B6802332B6006278F
:1013500023681F403FB3230043331B785A1E934139
:101360002268920630D42200019943320098089EE8
:10137000B047431C25D0062320682A68E168034053
:101380000025042B03D18D1AEB43DB171D40A36806
:101390002269934201DD9B1AED180027BD4220D13E
:1013A000002010E00137E3682A689B1A9F42D2DAD6
:1013B00022000123193201990098089EB047431C6E
:1013C000F0D101204042FEBD3020E11843310870C9
:1013D00021005A1C45310978A2184332023311709A
:1013E000C1E7220001231A3201990098089EB047F4
:1013F000431CE6D00137D1E7F0B50E0089B0059364
:10140000039004920A7E0C000E9B43366E2A00D194
:101410008DE017D8632A2CD008D8002A00D197E095
:10142000582A66D0250042352A7029E0642A01D066
:10143000692AF7D121681A68080623D5111D196099
:10144000136825E0732A00D186E008D86F2A27D0D8
:10145000702AE7D1202209680A43226003E0752A36
:101460001ED0782ADED12200782145321170694AD7
:1014700042E00D001A684235111D196013682B7087
:10148000012376E04906D9D5111D19600023D35EEA
:10149000002B02DA2D225B4232705F4A0A2116E0ED
:1014A00020681968050603D5081D18600B6805E05B
:1014B0004006F9D5081D18600B689BB256496F2A83
:1014C00032D10A00082120000025433005706068F1
:1014D000A060002873DB04252768AF432760002B3A
:1014E0006FD13500002878D02500137842352B7055
:1014F00073E045310A70484A196820680D1D1D6067
:101500000B6805060CD5C10702D5202108432060D1
:101510001021002BD7D12020256885432560D2E7F4
:101520004506F0D59BB2EEE70A000A21CBE7096831
:101530001A68080605D5111D1960136862691A60DA
:1015400006E04906F7D5111D19601368A28A1A80B2
:101550000023350023614EE01A68111D19601568DB
:1015600000216268280000F0A3F908B1401B606008
:1015700063682361002333703DE023692A000499E6
:101580000398059DA847431C3FD0236800259B076F
:101590000FD4079BE068984239DA180037E0220040
:1015A0000123193204990398059EB047431C2CD09F
:1015B0000135E368079A9B1A9D42F0DBE9E7002BAF
:1015C00092D03500B3FBF1F00F004743DB1BD35C37
:1015D000013D2B7003000028F4D1082909D12368AC
:1015E000DB0706D563682269934202DC3023013DA4
:1015F0002B70761B2661059B07AA00932100049B94
:101600000398FFF78DFE431CB7D10120404209B07B
:10161000F0BDC046B61A0000A51A0000092210B598
:10162000838913400022092B02D1FFF72BFB020014
:10163000100010BDF8B505000C0018B183690BB996
:10164000FFF776FB3C4B9C420AD16C680023636039
:101650000C23E25E93B299060CD50120404266E06D
:10166000364B9C4201D1AC68F0E7354B9C42EDD142
:10167000EC68EBE7590748D4D90605D409232B6059
:1016800037331343A381E8E7082633420AD0210009
:101690002800FFF7CDFA0028DFD1A389A060B3436B
:1016A000A381A0610423A2891343A38123691BB9E9
:1016B00021002800FFF70EFC0C23E75EBEB2B30743
:1016C0000FD00123A3811F4B1F491868FFF79EFB12
:1016D0000923A7811E409E4203D121002800FFF765
:1016E0001FFA23692269236028006369216A656AF9
:1016F000A847020060600020824218DCA189BAB9C4
:1017000020230B43A381013811E0616B0029CDD068
:1017100023004433994202D02800FFF71FFC002029
:10172000236C60636360002BC0D0E36B2360F8BD63
:10173000402360600B43A5E7541A0000741A0000B0
:10174000341A0000301A00001D160000002370B586
:10175000054C05000800236000F0EAF8431C02D1A4
:10176000236803B12B6070BD8000002070B50C00B1
:101770000E25495F00F0AAF8002803DB636D1B18F3
:10178000636570BDA389024A1340A381F9E7C0468F
:10179000FFEFFFFFF8B51F008B8905000C00160056
:1017A000DB0505D50E23C95E0022022300F06EF88A
:1017B000A389054A28001340A38132000E23E15E6D
:1017C0003B0000F01FF8F8BDFFEFFFFF70B50C0005
:1017D0000E25495F00F05AF8A389421C03D1054A3F
:1017E0001340A38170BD41F200021343A3816065E1
:1017F000F8E7C046FFEFFFFF10B50E23C95E00F00B
:1018000013F810BD70B50500080011000022054C4A
:1018100022601A00FEF7E8FE431C02D1236803B1E0
:101820002B6070BD80000020002370B5054C0500C2
:101830000800236000F05CF8431C02D1236803B168
:101840002B6070BD80000020002370B5064C0500A1
:1018500008001100236000F053F8431C02D12368F4
:1018600003B12B6070BDC04680000020002370B51E
:10187000054C05000800236000F04AF8431C02D123
:10188000236803B12B6070BD8000002070B5050097
:10189000080011000022054C22601A0000F040F8F8
:1018A000431C02D1236803B12B6070BD800000206F
:1018B000C9B28218904201D10020704703788B4250
:1018C000FBD00130F6E770477047000070B50500A7
:1018D000080011000022054C22601A00FEF7A2FE4B
:1018E000431C02D1236803B12B6070BD800000202F
:1018F00058220120014B40421A60704780000020AE
:1019000058220120014B40421A607047800000209D
:101910005822024B00201A607047C0468000002009
:1019200058220120014B40421A607047800000207D
:10193000044A13681BB11818106018007047024B56
:10194000F9E7C0467C0000208800002053656375DD
:101950007265204C4544204F4E2063616C6C2062C0
:1019600079207365637572650000000053656375C7
:101970007265204C4544204F46462063616C6C20C4
:1019800062792073656375726500000046614E538D
:1019900041444452203D2030782530386C780A008C
:1019A000507265737320616E79206B657920746F56
:1019B000207265626F6F74202E2E2E005365637542
:1019C000726520526567696F6E20436F64652053AE
:1019D0007461636B3A204D53502830782530386C51
:1019E0007829205053502830782530386C78290ACF
:1019F000000000004E6F6E2D736563757265205296
:101A00006567696F6E20436F646520537461636B13
:101A10003A204D53502830782530386C78292050A2
:101A200053502830782530386C78290A000000009F
:101A3000080000200000000000000000000000007E
:101A40000000000000000000000000000000000096
:101A50000000000000000000000000000000000086
:101A60000000000000000000000000000000000076
:101A70000000000000000000000000000000000066
:101A80000000000000000000000000000000000056
:101A900000000000232D302B2000686C4C00656690
:101AA00067454647003031323334353637383941AF
:101AB00042434445460030313233343536373839C5
:081AC0006162636465660000C9
:101AC800001BB7000800002000000000541A0000A6
:101AD800741A0000341A0000000000000000000022
:101AE80000000000000000000000000000000000EE
:101AF80000000000000000000000000000000000DE
:101B080000000000000000000000000000000000CD
:101B180000000000000000000000000000000000BD
:081B28000000000000000000B5
:020000023000CC
:10F800007FE97FE9C0F738BD7FE97FE9C0F7FEBC3B
:10F810007FE97FE9C0F716BD7FE97FE9C0F7DABC71
:10F820007FE97FE9C0F742BD000000000000000052
:10F8300000000000000000000000000000000000C8
:04000003000006995A
:00000001FF
